{
  "_format": "hh-sol-artifact-1",
  "contractName": "KickStarterBurnable",
  "sourceName": "contracts/KickStarterBurnable.sol",
  "abi": [
    {
      "inputs": [
        {
          "internalType": "string",
          "name": "_name",
          "type": "string"
        },
        {
          "internalType": "string",
          "name": "_symbol",
          "type": "string"
        },
        {
          "internalType": "uint256",
          "name": "_supply",
          "type": "uint256"
        },
        {
          "internalType": "address payable",
          "name": "_service",
          "type": "address"
        }
      ],
      "stateMutability": "payable",
      "type": "constructor"
    },
    {
      "anonymous": false,
      "inputs": [
        {
          "indexed": true,
          "internalType": "address",
          "name": "owner",
          "type": "address"
        },
        {
          "indexed": true,
          "internalType": "address",
          "name": "spender",
          "type": "address"
        },
        {
          "indexed": false,
          "internalType": "uint256",
          "name": "value",
          "type": "uint256"
        }
      ],
      "name": "Approval",
      "type": "event"
    },
    {
      "anonymous": false,
      "inputs": [
        {
          "indexed": true,
          "internalType": "address",
          "name": "from",
          "type": "address"
        },
        {
          "indexed": true,
          "internalType": "address",
          "name": "to",
          "type": "address"
        },
        {
          "indexed": false,
          "internalType": "uint256",
          "name": "value",
          "type": "uint256"
        }
      ],
      "name": "Transfer",
      "type": "event"
    },
    {
      "inputs": [
        {
          "internalType": "address",
          "name": "owner",
          "type": "address"
        },
        {
          "internalType": "address",
          "name": "spender",
          "type": "address"
        }
      ],
      "name": "allowance",
      "outputs": [
        {
          "internalType": "uint256",
          "name": "",
          "type": "uint256"
        }
      ],
      "stateMutability": "view",
      "type": "function"
    },
    {
      "inputs": [
        {
          "internalType": "address",
          "name": "spender",
          "type": "address"
        },
        {
          "internalType": "uint256",
          "name": "amount",
          "type": "uint256"
        }
      ],
      "name": "approve",
      "outputs": [
        {
          "internalType": "bool",
          "name": "",
          "type": "bool"
        }
      ],
      "stateMutability": "nonpayable",
      "type": "function"
    },
    {
      "inputs": [
        {
          "internalType": "address",
          "name": "account",
          "type": "address"
        }
      ],
      "name": "balanceOf",
      "outputs": [
        {
          "internalType": "uint256",
          "name": "",
          "type": "uint256"
        }
      ],
      "stateMutability": "view",
      "type": "function"
    },
    {
      "inputs": [
        {
          "internalType": "uint256",
          "name": "amount",
          "type": "uint256"
        }
      ],
      "name": "burn",
      "outputs": [],
      "stateMutability": "nonpayable",
      "type": "function"
    },
    {
      "inputs": [
        {
          "internalType": "address",
          "name": "account",
          "type": "address"
        },
        {
          "internalType": "uint256",
          "name": "amount",
          "type": "uint256"
        }
      ],
      "name": "burnFrom",
      "outputs": [],
      "stateMutability": "nonpayable",
      "type": "function"
    },
    {
      "inputs": [],
      "name": "decimals",
      "outputs": [
        {
          "internalType": "uint8",
          "name": "",
          "type": "uint8"
        }
      ],
      "stateMutability": "view",
      "type": "function"
    },
    {
      "inputs": [
        {
          "internalType": "address",
          "name": "spender",
          "type": "address"
        },
        {
          "internalType": "uint256",
          "name": "subtractedValue",
          "type": "uint256"
        }
      ],
      "name": "decreaseAllowance",
      "outputs": [
        {
          "internalType": "bool",
          "name": "",
          "type": "bool"
        }
      ],
      "stateMutability": "nonpayable",
      "type": "function"
    },
    {
      "inputs": [
        {
          "internalType": "address",
          "name": "spender",
          "type": "address"
        },
        {
          "internalType": "uint256",
          "name": "addedValue",
          "type": "uint256"
        }
      ],
      "name": "increaseAllowance",
      "outputs": [
        {
          "internalType": "bool",
          "name": "",
          "type": "bool"
        }
      ],
      "stateMutability": "nonpayable",
      "type": "function"
    },
    {
      "inputs": [],
      "name": "name",
      "outputs": [
        {
          "internalType": "string",
          "name": "",
          "type": "string"
        }
      ],
      "stateMutability": "view",
      "type": "function"
    },
    {
      "inputs": [],
      "name": "symbol",
      "outputs": [
        {
          "internalType": "string",
          "name": "",
          "type": "string"
        }
      ],
      "stateMutability": "view",
      "type": "function"
    },
    {
      "inputs": [],
      "name": "totalSupply",
      "outputs": [
        {
          "internalType": "uint256",
          "name": "",
          "type": "uint256"
        }
      ],
      "stateMutability": "view",
      "type": "function"
    },
    {
      "inputs": [
        {
          "internalType": "address",
          "name": "to",
          "type": "address"
        },
        {
          "internalType": "uint256",
          "name": "amount",
          "type": "uint256"
        }
      ],
      "name": "transfer",
      "outputs": [
        {
          "internalType": "bool",
          "name": "",
          "type": "bool"
        }
      ],
      "stateMutability": "nonpayable",
      "type": "function"
    },
    {
      "inputs": [
        {
          "internalType": "address",
          "name": "from",
          "type": "address"
        },
        {
          "internalType": "address",
          "name": "to",
          "type": "address"
        },
        {
          "internalType": "uint256",
          "name": "amount",
          "type": "uint256"
        }
      ],
      "name": "transferFrom",
      "outputs": [
        {
          "internalType": "bool",
          "name": "",
          "type": "bool"
        }
      ],
      "stateMutability": "nonpayable",
      "type": "function"
    }
  ],
  "bytecode": "0x6080604052604051620020cc380380620020cc8339818101604052810190620000299190620003c9565b838381600390805190602001906200004392919062000279565b5080600490805190602001906200005c92919062000279565b5050508073ffffffffffffffffffffffffffffffffffffffff166108fc349081150290604051600060405180830381858888f19350505050158015620000a6573d6000803e3d6000fd5b50620000e333620000bc620000ed60201b60201c565b600a620000ca919062000606565b84620000d7919062000743565b620000f660201b60201c565b5050505062000999565b60006012905090565b600073ffffffffffffffffffffffffffffffffffffffff168273ffffffffffffffffffffffffffffffffffffffff16141562000169576040517f08c379a000000000000000000000000000000000000000000000000000000000815260040162000160906200049f565b60405180910390fd5b6200017d600083836200026f60201b60201c565b80600260008282546200019191906200054e565b92505081905550806000808473ffffffffffffffffffffffffffffffffffffffff1673ffffffffffffffffffffffffffffffffffffffff1681526020019081526020016000206000828254620001e891906200054e565b925050819055508173ffffffffffffffffffffffffffffffffffffffff16600073ffffffffffffffffffffffffffffffffffffffff167fddf252ad1be2c89b69c2b068fc378daa952ba7f163c4a11628f55a4df523b3ef836040516200024f9190620004c1565b60405180910390a36200026b600083836200027460201b60201c565b5050565b505050565b505050565b828054620002879062000825565b90600052602060002090601f016020900481019282620002ab5760008555620002f7565b82601f10620002c657805160ff1916838001178555620002f7565b82800160010185558215620002f7579182015b82811115620002f6578251825591602001919060010190620002d9565b5b5090506200030691906200030a565b5090565b5b80821115620003255760008160009055506001016200030b565b5090565b6000620003406200033a8462000507565b620004de565b9050828152602081018484840111156200035957600080fd5b62000366848285620007ef565b509392505050565b6000815190506200037f8162000965565b92915050565b600082601f8301126200039757600080fd5b8151620003a984826020860162000329565b91505092915050565b600081519050620003c3816200097f565b92915050565b60008060008060808587031215620003e057600080fd5b600085015167ffffffffffffffff811115620003fb57600080fd5b620004098782880162000385565b945050602085015167ffffffffffffffff8111156200042757600080fd5b620004358782880162000385565b93505060406200044887828801620003b2565b92505060606200045b878288016200036e565b91505092959194509250565b600062000476601f836200053d565b915062000483826200093c565b602082019050919050565b6200049981620007d8565b82525050565b60006020820190508181036000830152620004ba8162000467565b9050919050565b6000602082019050620004d860008301846200048e565b92915050565b6000620004ea620004fd565b9050620004f882826200085b565b919050565b6000604051905090565b600067ffffffffffffffff821115620005255762000524620008ef565b5b62000530826200091e565b9050602081019050919050565b600082825260208201905092915050565b60006200055b82620007d8565b91506200056883620007d8565b9250827fffffffffffffffffffffffffffffffffffffffffffffffffffffffffffffffff03821115620005a0576200059f62000891565b5b828201905092915050565b6000808291508390505b6001851115620005fd57808604811115620005d557620005d462000891565b5b6001851615620005e55780820291505b8081029050620005f5856200092f565b9450620005b5565b94509492505050565b60006200061382620007d8565b91506200062083620007e2565b92506200064f7fffffffffffffffffffffffffffffffffffffffffffffffffffffffffffffffff848462000657565b905092915050565b6000826200066957600190506200073c565b816200067957600090506200073c565b81600181146200069257600281146200069d57620006d3565b60019150506200073c565b60ff841115620006b257620006b162000891565b5b8360020a915084821115620006cc57620006cb62000891565b5b506200073c565b5060208310610133831016604e8410600b84101617156200070d5782820a90508381111562000707576200070662000891565b5b6200073c565b6200071c8484846001620005ab565b9250905081840481111562000736576200073562000891565b5b81810290505b9392505050565b60006200075082620007d8565b91506200075d83620007d8565b9250817fffffffffffffffffffffffffffffffffffffffffffffffffffffffffffffffff048311821515161562000799576200079862000891565b5b828202905092915050565b6000620007b182620007b8565b9050919050565b600073ffffffffffffffffffffffffffffffffffffffff82169050919050565b6000819050919050565b600060ff82169050919050565b60005b838110156200080f578082015181840152602081019050620007f2565b838111156200081f576000848401525b50505050565b600060028204905060018216806200083e57607f821691505b60208210811415620008555762000854620008c0565b5b50919050565b62000866826200091e565b810181811067ffffffffffffffff82111715620008885762000887620008ef565b5b80604052505050565b7f4e487b7100000000000000000000000000000000000000000000000000000000600052601160045260246000fd5b7f4e487b7100000000000000000000000000000000000000000000000000000000600052602260045260246000fd5b7f4e487b7100000000000000000000000000000000000000000000000000000000600052604160045260246000fd5b6000601f19601f8301169050919050565b60008160011c9050919050565b7f45524332303a206d696e7420746f20746865207a65726f206164647265737300600082015250565b6200097081620007a4565b81146200097c57600080fd5b50565b6200098a81620007d8565b81146200099657600080fd5b50565b61172380620009a96000396000f3fe608060405234801561001057600080fd5b50600436106100cf5760003560e01c806342966c681161008c57806395d89b411161006657806395d89b4114610226578063a457c2d714610244578063a9059cbb14610274578063dd62ed3e146102a4576100cf565b806342966c68146101be57806370a08231146101da57806379cc67901461020a576100cf565b806306fdde03146100d4578063095ea7b3146100f257806318160ddd1461012257806323b872dd14610140578063313ce56714610170578063395093511461018e575b600080fd5b6100dc6102d4565b6040516100e991906110d7565b60405180910390f35b61010c60048036038101906101079190610eb6565b610366565b60405161011991906110bc565b60405180910390f35b61012a610389565b6040516101379190611219565b60405180910390f35b61015a60048036038101906101559190610e67565b610393565b60405161016791906110bc565b60405180910390f35b6101786103c2565b6040516101859190611234565b60405180910390f35b6101a860048036038101906101a39190610eb6565b6103cb565b6040516101b591906110bc565b60405180910390f35b6101d860048036038101906101d39190610ef2565b610475565b005b6101f460048036038101906101ef9190610e02565b610489565b6040516102019190611219565b60405180910390f35b610224600480360381019061021f9190610eb6565b6104d1565b005b61022e6104f1565b60405161023b91906110d7565b60405180910390f35b61025e60048036038101906102599190610eb6565b610583565b60405161026b91906110bc565b60405180910390f35b61028e60048036038101906102899190610eb6565b61066d565b60405161029b91906110bc565b60405180910390f35b6102be60048036038101906102b99190610e2b565b610690565b6040516102cb9190611219565b60405180910390f35b6060600380546102e39061137d565b80601f016020809104026020016040519081016040528092919081815260200182805461030f9061137d565b801561035c5780601f106103315761010080835404028352916020019161035c565b820191906000526020600020905b81548152906001019060200180831161033f57829003601f168201915b5050505050905090565b600080610371610717565b905061037e81858561071f565b600191505092915050565b6000600254905090565b60008061039e610717565b90506103ab8582856108ea565b6103b6858585610976565b60019150509392505050565b60006012905090565b6000806103d6610717565b905061046a818585600160008673ffffffffffffffffffffffffffffffffffffffff1673ffffffffffffffffffffffffffffffffffffffff16815260200190815260200160002060008973ffffffffffffffffffffffffffffffffffffffff1673ffffffffffffffffffffffffffffffffffffffff16815260200190815260200160002054610465919061126b565b61071f565b600191505092915050565b610486610480610717565b82610bf7565b50565b60008060008373ffffffffffffffffffffffffffffffffffffffff1673ffffffffffffffffffffffffffffffffffffffff168152602001908152602001600020549050919050565b6104e3826104dd610717565b836108ea565b6104ed8282610bf7565b5050565b6060600480546105009061137d565b80601f016020809104026020016040519081016040528092919081815260200182805461052c9061137d565b80156105795780601f1061054e57610100808354040283529160200191610579565b820191906000526020600020905b81548152906001019060200180831161055c57829003601f168201915b5050505050905090565b60008061058e610717565b90506000600160008373ffffffffffffffffffffffffffffffffffffffff1673ffffffffffffffffffffffffffffffffffffffff16815260200190815260200160002060008673ffffffffffffffffffffffffffffffffffffffff1673ffffffffffffffffffffffffffffffffffffffff16815260200190815260200160002054905083811015610654576040517f08c379a000000000000000000000000000000000000000000000000000000000815260040161064b906111f9565b60405180910390fd5b610661828686840361071f565b60019250505092915050565b600080610678610717565b9050610685818585610976565b600191505092915050565b6000600160008473ffffffffffffffffffffffffffffffffffffffff1673ffffffffffffffffffffffffffffffffffffffff16815260200190815260200160002060008373ffffffffffffffffffffffffffffffffffffffff1673ffffffffffffffffffffffffffffffffffffffff16815260200190815260200160002054905092915050565b600033905090565b600073ffffffffffffffffffffffffffffffffffffffff168373ffffffffffffffffffffffffffffffffffffffff16141561078f576040517f08c379a0000000000000000000000000000000000000000000000000000000008152600401610786906111d9565b60405180910390fd5b600073ffffffffffffffffffffffffffffffffffffffff168273ffffffffffffffffffffffffffffffffffffffff1614156107ff576040517f08c379a00000000000000000000000000000000000000000000000000000000081526004016107f690611139565b60405180910390fd5b80600160008573ffffffffffffffffffffffffffffffffffffffff1673ffffffffffffffffffffffffffffffffffffffff16815260200190815260200160002060008473ffffffffffffffffffffffffffffffffffffffff1673ffffffffffffffffffffffffffffffffffffffff168152602001908152602001600020819055508173ffffffffffffffffffffffffffffffffffffffff168373ffffffffffffffffffffffffffffffffffffffff167f8c5be1e5ebec7d5bd14f71427d1e84f3dd0314c0f7b2291e5b200ac8c7c3b925836040516108dd9190611219565b60405180910390a3505050565b60006108f68484610690565b90507fffffffffffffffffffffffffffffffffffffffffffffffffffffffffffffffff81146109705781811015610962576040517f08c379a000000000000000000000000000000000000000000000000000000000815260040161095990611159565b60405180910390fd5b61096f848484840361071f565b5b50505050565b600073ffffffffffffffffffffffffffffffffffffffff168373ffffffffffffffffffffffffffffffffffffffff1614156109e6576040517f08c379a00000000000000000000000000000000000000000000000000000000081526004016109dd906111b9565b60405180910390fd5b600073ffffffffffffffffffffffffffffffffffffffff168273ffffffffffffffffffffffffffffffffffffffff161415610a56576040517f08c379a0000000000000000000000000000000000000000000000000000000008152600401610a4d906110f9565b60405180910390fd5b610a61838383610dce565b60008060008573ffffffffffffffffffffffffffffffffffffffff1673ffffffffffffffffffffffffffffffffffffffff16815260200190815260200160002054905081811015610ae7576040517f08c379a0000000000000000000000000000000000000000000000000000000008152600401610ade90611179565b60405180910390fd5b8181036000808673ffffffffffffffffffffffffffffffffffffffff1673ffffffffffffffffffffffffffffffffffffffff16815260200190815260200160002081905550816000808573ffffffffffffffffffffffffffffffffffffffff1673ffffffffffffffffffffffffffffffffffffffff1681526020019081526020016000206000828254610b7a919061126b565b925050819055508273ffffffffffffffffffffffffffffffffffffffff168473ffffffffffffffffffffffffffffffffffffffff167fddf252ad1be2c89b69c2b068fc378daa952ba7f163c4a11628f55a4df523b3ef84604051610bde9190611219565b60405180910390a3610bf1848484610dd3565b50505050565b600073ffffffffffffffffffffffffffffffffffffffff168273ffffffffffffffffffffffffffffffffffffffff161415610c67576040517f08c379a0000000000000000000000000000000000000000000000000000000008152600401610c5e90611199565b60405180910390fd5b610c7382600083610dce565b60008060008473ffffffffffffffffffffffffffffffffffffffff1673ffffffffffffffffffffffffffffffffffffffff16815260200190815260200160002054905081811015610cf9576040517f08c379a0000000000000000000000000000000000000000000000000000000008152600401610cf090611119565b60405180910390fd5b8181036000808573ffffffffffffffffffffffffffffffffffffffff1673ffffffffffffffffffffffffffffffffffffffff168152602001908152602001600020819055508160026000828254610d5091906112c1565b92505081905550600073ffffffffffffffffffffffffffffffffffffffff168373ffffffffffffffffffffffffffffffffffffffff167fddf252ad1be2c89b69c2b068fc378daa952ba7f163c4a11628f55a4df523b3ef84604051610db59190611219565b60405180910390a3610dc983600084610dd3565b505050565b505050565b505050565b600081359050610de7816116bf565b92915050565b600081359050610dfc816116d6565b92915050565b600060208284031215610e1457600080fd5b6000610e2284828501610dd8565b91505092915050565b60008060408385031215610e3e57600080fd5b6000610e4c85828601610dd8565b9250506020610e5d85828601610dd8565b9150509250929050565b600080600060608486031215610e7c57600080fd5b6000610e8a86828701610dd8565b9350506020610e9b86828701610dd8565b9250506040610eac86828701610ded565b9150509250925092565b60008060408385031215610ec957600080fd5b6000610ed785828601610dd8565b9250506020610ee885828601610ded565b9150509250929050565b600060208284031215610f0457600080fd5b6000610f1284828501610ded565b91505092915050565b610f2481611307565b82525050565b6000610f358261124f565b610f3f818561125a565b9350610f4f81856020860161134a565b610f588161140d565b840191505092915050565b6000610f7060238361125a565b9150610f7b8261141e565b604082019050919050565b6000610f9360228361125a565b9150610f9e8261146d565b604082019050919050565b6000610fb660228361125a565b9150610fc1826114bc565b604082019050919050565b6000610fd9601d8361125a565b9150610fe48261150b565b602082019050919050565b6000610ffc60268361125a565b915061100782611534565b604082019050919050565b600061101f60218361125a565b915061102a82611583565b604082019050919050565b600061104260258361125a565b915061104d826115d2565b604082019050919050565b600061106560248361125a565b915061107082611621565b604082019050919050565b600061108860258361125a565b915061109382611670565b604082019050919050565b6110a781611333565b82525050565b6110b68161133d565b82525050565b60006020820190506110d16000830184610f1b565b92915050565b600060208201905081810360008301526110f18184610f2a565b905092915050565b6000602082019050818103600083015261111281610f63565b9050919050565b6000602082019050818103600083015261113281610f86565b9050919050565b6000602082019050818103600083015261115281610fa9565b9050919050565b6000602082019050818103600083015261117281610fcc565b9050919050565b6000602082019050818103600083015261119281610fef565b9050919050565b600060208201905081810360008301526111b281611012565b9050919050565b600060208201905081810360008301526111d281611035565b9050919050565b600060208201905081810360008301526111f281611058565b9050919050565b600060208201905081810360008301526112128161107b565b9050919050565b600060208201905061122e600083018461109e565b92915050565b600060208201905061124960008301846110ad565b92915050565b600081519050919050565b600082825260208201905092915050565b600061127682611333565b915061128183611333565b9250827fffffffffffffffffffffffffffffffffffffffffffffffffffffffffffffffff038211156112b6576112b56113af565b5b828201905092915050565b60006112cc82611333565b91506112d783611333565b9250828210156112ea576112e96113af565b5b828203905092915050565b600061130082611313565b9050919050565b60008115159050919050565b600073ffffffffffffffffffffffffffffffffffffffff82169050919050565b6000819050919050565b600060ff82169050919050565b60005b8381101561136857808201518184015260208101905061134d565b83811115611377576000848401525b50505050565b6000600282049050600182168061139557607f821691505b602082108114156113a9576113a86113de565b5b50919050565b7f4e487b7100000000000000000000000000000000000000000000000000000000600052601160045260246000fd5b7f4e487b7100000000000000000000000000000000000000000000000000000000600052602260045260246000fd5b6000601f19601f8301169050919050565b7f45524332303a207472616e7366657220746f20746865207a65726f206164647260008201527f6573730000000000000000000000000000000000000000000000000000000000602082015250565b7f45524332303a206275726e20616d6f756e7420657863656564732062616c616e60008201527f6365000000000000000000000000000000000000000000000000000000000000602082015250565b7f45524332303a20617070726f766520746f20746865207a65726f20616464726560008201527f7373000000000000000000000000000000000000000000000000000000000000602082015250565b7f45524332303a20696e73756666696369656e7420616c6c6f77616e6365000000600082015250565b7f45524332303a207472616e7366657220616d6f756e742065786365656473206260008201527f616c616e63650000000000000000000000000000000000000000000000000000602082015250565b7f45524332303a206275726e2066726f6d20746865207a65726f2061646472657360008201527f7300000000000000000000000000000000000000000000000000000000000000602082015250565b7f45524332303a207472616e736665722066726f6d20746865207a65726f20616460008201527f6472657373000000000000000000000000000000000000000000000000000000602082015250565b7f45524332303a20617070726f76652066726f6d20746865207a65726f2061646460008201527f7265737300000000000000000000000000000000000000000000000000000000602082015250565b7f45524332303a2064656372656173656420616c6c6f77616e63652062656c6f7760008201527f207a65726f000000000000000000000000000000000000000000000000000000602082015250565b6116c8816112f5565b81146116d357600080fd5b50565b6116df81611333565b81146116ea57600080fd5b5056fea26469706673582212203580568fab650537248319fa3943b5171745333e952b1dde69d8cfd3d336080764736f6c63430008040033",
  "linkReferences": {},
  "deployedLinkReferences": {}
}